:020000040800F2
:1000000000500020452C0008792C0008792C0008AD
:10001000792C0008792C0008792C000800000000D9
:10002000000000000000000000000000792C000823
:10003000792C000800000000792C0008792C0008B9
:10004000792C0008792C0008792C0008792C0008FC
:10005000792C0008792C0008792C0008792C0008EC
:10006000792C0008792C0008792C0008792C0008DC
:10007000792C0008792C0008792C0008792C0008CC
:10008000792C0008792C0008792C00088D1B0008B9
:10009000911B0008792C0008891B0008792C0008A6
:1000A000792C0008792C0008792C0008792C00089C
:1000B000792C0008792C0008792C0008792C00088C
:1000C000792C0008792C0008792C0008792C00087C
:1000D000792C0008792C0008792C0008792C00086C
:1000E000792C0008792C0008792C00080000000009
:1000F0000000000000000000000000000000000000
:1001000000000000000000005FF808F110B5054C89
:10011000237833B9044B13B10448AFF300800123B3
:10012000237010BD740100200000000098700008CA
:100130000C4B43B10C4810B50C49AFF300800C4890
:10014000036823B910BD0A48036833B97047094BE7
:10015000002BF7D0BDE810401847064B002BF5D018
:10016000184700BF000000009870000878010020C8
:100170007001002000000000154B002B08BF134B3E
:100180009D46A3F5803A00218B460F461348144A3A
:10019000121A05F074F90F4B002B00D098470E4B44
:1001A000002B00D098470020002104000D000D48CE
:1001B000002802D00C4802F052FB05F013F9200091
:1001C000290002F00BFB02F047FB00BF0000080013
:1001D0000050002000000000CF270008740100201C
:1001E000F81200205F28000800000000704700009F
:1001F000024A136801331360704700BF8C0400206B
:10020000024A136801331360704700BF9004002056
:100210000368184708B10B68036070477047000017
:10022000F8B50B4E0B4C0A4804F0E0FB70B12768A0
:1002300065793046EDB26B1CDBB2637104F070FB84
:100240007855E379627913406371ECE7F8BD00BF3C
:10025000A40100209804002038B5B0F9003004460D
:1002600001330D4604D13A220549064804F0AEFE9A
:10027000636815B1E268136038BD2269FBE700BF0F
:100280000665000864650008014804F0E6BC00BF8C
:100290001406002010B5084C204604F00DFD074B55
:1002A00018603A23B0FBF3F0054B18602046BDE818
:1002B000104004F0F1BC00BF14060020F407002039
:1002C0004805002008B5044804F00BFDBDE80840CF
:1002D00000210248FFF7C0BF1406002020080020BC
:1002E00010B504460C2104F0EDFE204610BD38B5D3
:1002F000054655F8043B04469B689847284601F09C
:10030000B5FB054623682046DB689847284638BD7C
:1003100038B504460D4604F07DFE2946204602F01D
:10032000B6F9BDE8384004F09FBE03460020D871FE
:10033000587930B5451C5D7155251C68013225542E
:1003400058799C79D2B22040451C5D714E251C68BD
:10035000255458799C792040451C5D7145251C68C1
:10036000255458799C792040451C5D7152251C68A4
:1003700025545C7998791D680440601C58712A5591
:1003800058799C792040451C5D713A251C6825549C
:1003900058799C7920401C68451C5D71215458791E
:1003A0009C7920405871D879424081F03600504005
:1003B000D87130BD03465A79006810B5541C5C7181
:1003C00081545A7998790240D8795A714840D87145
:1003D00010BD000000220D4B70B51A701C780A5D2C
:1003E0008AB142790568561C46710C5DAC5442795D
:1003F0008479224042711A78541C1C708A5CC4793A
:100400006240C271EAE7C07970BD00BF58050020A4
:1004100010B58379C47919442140036881715B5C0C
:10042000114421408171184610BD2DE9F04F002282
:1004300001244FF0060805254FF0040C03264FF069
:10044000020E90F805900379994558D0877AC179C2
:10045000062F52D8DFE807F0040F1C22292E3C009B
:100460000768FB5C552B01D18472C5720379013397
:1004700019400171E7E70768FF5C4E2F02D180F851
:100480000AE0F3E7552FF1D0013B82720371EDE7EB
:100490000768FF5C452FF7D18672E7E70768FF5CC6
:1004A000522FF1D180F80AC0E0E70768FB5C857243
:1004B0004372DBE70768FF5C3A2FE5D101330B405D
:1004C0008371437A80F80A8083F036030372CDE7A4
:1004D000477AD0F800B0013FFFB2477290F808A009
:1004E00027B11BF8033083EA0A03EFE787721BF892
:1004F00003305345BAD10473B8E78272B6E7BDE85A
:10050000F08F0000F8B5026883790C46D15C07468D
:10051000A42900F01A8125D8A12964D007D8A029E0
:100520003FD002222046FFF700FFFF2135E0A2293D
:1005300000F0C080A329F4D1924B934D1B68052293
:1005400020462B60FFF7F1FE29782046FFF732FFA7
:1005500069782046FFF72EFFA9782046FFF72AFF8B
:10056000E9781AE0F02913D002D8A729D9D8F8BD24
:10057000F129D6D10C222046FFF7D7FE8349204629
:10058000FFF728FFE1792046BDE8F840FFF712BFEA
:1005900002222046FFF7C9FE0D212046FFF70AFF81
:1005A000F0E77B4E784D3388072220462B80FFF7FB
:1005B000BCFE29782046FFF7FDFE69782046FFF74C
:1005C000F9FE718920462980C9B2FFF7F3FE6978E8
:1005D0002046FFF7EFFEB18A20462980C9B2FFF717
:1005E000E9FE6978D9E702222046FFF79EFE0D2139
:1005F0002046FFF7DFFEE1792046FFF7DBFE002211
:1006000001213846FFF704FF5F4C002220700121D2
:100610003846FFF7FDFE0022607001213846FFF7E3
:10062000F7FE01210022A0703846FFF7F1FEE070CE
:100630002368584D002BACBF0221012156482B6086
:1006400004F05CF82968554E81EAE173A3EBE1738D
:10065000FA21594352483160FFF75AFE0022012126
:100660003846FFF7D5FE0022207001213846FFF7FB
:10067000CFFE0022607001213846FFF7C9FE01213C
:10068000A07000223846FFF7C3FEE070236845489B
:10069000002BACBF022101212B6004F02FF8FA21BE
:1006A0002B684148002BB8BF5B4259433160FFF7CC
:1006B0002FFEF8BD3D4D022220462E68FFF735FE85
:1006C0000D212046FFF776FEE1792046FFF772FE06
:1006D000374A01211378384643F040031370002253
:1006E000FFF796FEB5F90A30B5F90810B5F90E40D6
:1006F000CA1A41B2091B5143B5F90C009AB2001B4A
:1007000091FBF0F11944914238BF194629482960FC
:10071000FFF7FEFD4FF47A712B68B5F908209E4271
:1007200034BF9E1BF61A6E606B68B5F90A004B4326
:10073000121AB3FBF2F38B4288BF0B46312B6B606E
:100740003FF615AF32236B60F8BD1B4B0E4D1B6897
:10075000092220462B60FFF7E8FD29782046FFF7A5
:1007600029FE69782046FFF725FEA9782046FFF785
:1007700021FEE9782046FFF71DFE104B196829601D
:10078000C9B2E2E6F4070020100700206F640008F9
:10079000D005002000060020B00400207C020020CC
:1007A00074070020FC0400208C070020F0050020C6
:1007B0004E05002014070020F0070020EC07002061
:1007C00070B5037B05460C4616461BB10023037328
:1007D000FFF798FE194800F001FD38B1AB7A2BB154
:1007E000EB7A013BDBB2EB7203B9AB722A796B791E
:1007F0009A4202D02846FFF718FE237962799A427E
:100800000CD066B121685A1C2271194401220C488F
:1008100000F07AFD2379A2791340237170BD094855
:1008200004F0F5F80028F9D023792268591C2171C9
:10083000D15C044804F083F8ECE700BF50050020C9
:1008400024060020A401002010B50E4C23785B067E
:1008500016D500F0C3FC98B1237802226FF38613FB
:100860002370094CA2212046FFF75FFD0A21204694
:10087000FFF7A0FDE1792046BDE81040FFF79ABDE3
:1008800010BD00BF4E050020A804002010B5174879
:1008900004F01FFA164C2368C01A1D2819DD1348EE
:1008A00004F017FA2060134C2378012B12D004D3E4
:1008B000022B15D0FF23237004E00F48FFF717FD2C
:1008C0000E4B188023780133DBB2022BC8BF002304
:1008D000237010BD0A48FFF70AFD084B5881F1E765
:1008E0000848FFF704FD054B9882EBE7040600205B
:1008F0007402002078020020B8050020D0050020F6
:10090000AC050020C40500202A4A10B514462A4B25
:1009100003F1100153F8040B8B4242F8040BF9D198
:100920001B781370254B264A03F1100153F8040B72
:100930008B4242F8040BF9D119889B78118093708F
:1009400020496422204804F08FFD204B204A03F107
:100950000C0153F8040B8B4242F8040BF9D11B78BD
:1009600013701C4B1C4A03F1380153F8040B8B42E3
:1009700042F8040BF9D11B881380184B184A03F175
:100980000C0153F8040B8B4242F8040BF9D11B887D
:1009900014491380144ADD3913681448C4F8DD3053
:1009A0005368C1F8E1309368C1F8E530BDE8104004
:1009B00000F098BC250600200E640008FA630008C9
:1009C000360600207C64000849060020EC6300081D
:1009D000AD0600203C640008BA0600202064000830
:1009E000F4060020020700202F64000824060020DF
:1009F00010B504460C4800F09FFC98B1204600F06A
:100A0000EDFB78B1094C0222F0212046FFF78DFC66
:100A10000D212046FFF7CEFCE1792046BDE81040CD
:100A2000FFF7C8BC10BD00BF240600206C0A0020E0
:100A300010B5264C01212648FFF70EFC626821788C
:100A4000531C636059B91E21618022490978062927
:100A500013D8DFE801F0060C2319291D31000A2103
:100A6000F2E70322B3FBF2F202EB42029B1A012BE4
:100A700003D100211648FFF7EFFB638862689A42B2
:100A800024BF0023636010BD012BF2D0042BEFE7DD
:100A9000012BEED022F00402032AE9E71E220C2BE0
:100AA0006280E6D9102BE3E71E220C2B6280E0D98E
:100AB000102BDED0132BDBE71E210C2B6180D8D945
:100AC000102BD6D022F00402122AD1E75C050020B8
:100AD000900100209404002010B5304CB4F900308F
:100AE000013304D148222E492E4804F06FFAA3683E
:100AF00018686368184014BF012200222A4B197A33
:100B00005A7003291BD8DFE801F002452B4500216C
:100B1000264A11705A68A2F11901322916D8244ABE
:100B20001178052906D8DFE801F0030B050D050F44
:100B30000121117000225A6008B101221A7210BD01
:100B40000321F6E70521F4E70021F2E74C3A402AB9
:100B5000F0D817490A78002AECD001320A70E9E788
:100B60005A680132192A5A600BD901240F4A1470AD
:100B70000F4A1178042908D0062909D0022900D18A
:100B800014700028DBD10322D8E703211170F8E7A5
:100B90000521FBE7002AD1D00222CFE76002002026
:100BA0000665000864650008800400205C050020DC
:100BB00094040020C36810B504460BB19B689847A5
:100BC000204610BDC36810B504460BB19B6898471A
:100BD000204610BD38B505460446064B45F8183B7F
:100BE00004F028F82846FFF7EDFF204604F06AF9E4
:100BF000204638BDB06E000810B50446FFF7EAFF86
:100C00002046282104F05EFA204610BD10B50446A7
:100C1000024B0360FFF7DEFF204610BD986E000810
:100C200070B5064604460B4B00F1B80546F8983BF4
:100C3000B54204D0103D2846FFF7C4FFF8E704F1A1
:100C40003800FFF7B7FF04F12800FFF7B3FF204695
:100C500070BD00BF806E000810B50446FFF7E0FFCE
:100C60002046BC2104F02EFA204610BD10B50446E3
:100C7000024B0360FFF7D4FF204610BD686E0008EA
:100C800038B5CB6804460D460BB15B689847EB68F6
:100C90002046E36038BD00006F4B704A2DE9F043F9
:100CA00000241A60FF221C716D495C719C72DA711C
:100CB0006C4B6D4E9A7119601C715C716B496C4B79
:100CC0008BB0DA7119601C715C719C7269496A4B56
:100CD0006A489A7119601C715C71694B4FF4E1317B
:100CE0001C7040F6C41333814FF4FA737381B5233B
:100CF000B3810123F3814FF47A73736003F062FED2
:100D000004F088F914215F4801F0BCFC04F0ACF950
:100D100021465D48FFF7A0FA5C4D5D4B224606A9CF
:100D200056480693099503F0F7FE06A8FFF74AFF19
:100D3000584B06A958480693099503F071FD06A87B
:100D4000FFF740FF554B06A955480693099503F058
:100D500067FD06A8FFF736FF524B06A952480693D7
:100D6000099503F05DFD06A8FFF72CFF4F4B06A980
:100D70004D480693099503F07DFD06A8FFF722FF75
:100D800040F2DC513F48FFF7C3FA0A21484800F01F
:100D900021FA4FF49671684600F01CFAB18802A857
:100DA00000F018FA43F6982104A800F013FA41481D
:100DB00000F04EFDFFF7A8FD3F4B40481C70274652
:100DC00003F04BFF3D4EDFF80881DFF8BC90304662
:100DD00003F07FFF001B27281FD9304603F079FF5F
:100DE0000446FFF779FEB8F8003001210133484688
:100DF000A8F80030FFF730FA314B324806930995D6
:100E0000FFF7E0FE06A92F48FFF73AFF2E480A2118
:100E100003F0FCFE06A8FFF7D5FE304603F059FFAD
:100E2000C01B632805D9304603F053FF0746FFF780
:100E3000FFFD204800F03EFC00220A490648FFF76B
:100E4000BFFCFFF723FD02A82049FFF7FDFC04A823
:100E5000FFF7CEFDBBE700BF980400208002002012
:100E600080030020A8040020F00500205C0800207A
:100E70005C0A00205C0900206C0A0020A40100200C
:100E80004E0500201407002020080020E063000821
:100E900021020008F10100082C07002001020008CF
:100EA000A4070020890200086405002095020008BC
:100EB0005005002024060020940400200406002091
:100EC000C50200084C08002034080020F40500206A
:100ED0004C050020034653F8042B10B5044602B914
:100EE000036022689A4204D059220349034804F05F
:100EF0006DF8206810BD00BFAA640008F264000805
:100F000008B50248FFF7E6FF08BD00BF1812002031
:100F100008B50248FFF7DEFF08BD00BF1812002029
:100F2000F8B504460F460546074B084E44F8043B07
:100F30003046FFF7CFFF3946204600F03BFD3046F4
:100F4000FFF7C8FF2846F8BDD0630008181200203C
:100F500010B50446FFF78AFE2046BC2104F0B2F823
:100F6000204610BD10B50446FFF750FE204628214C
:100F700004F0A8F8204610BDF0B51424744D8FB0CD
:100F800022460021284604F07AFA2846714D2D2188
:100F900003F009FF704E22460021284604F06FFA44
:100FA000284604216D4D03F0E4FE4FF416530A2247
:100FB0000921304603F0AAFC3046694E2A466949A9
:100FC00001F048FC22460021304604F058FA304631
:100FD000654E664C1D2103F0E6FE1C21304603F0F1
:100FE000E9FB634F2A462146304601F033FC04F00A
:100FF00011F808215F4801F0D9FA5F4E04F034F887
:1010000000213846FFF78CFF38465C4F2A463146B0
:1010100001F020FC01213846FFF782FF3846584F87
:101020002A46314601F016FC02213846FFF778FFC8
:101030003146544E2A46384601F00CFC1921304600
:1010400003F0B8FB3046504E2A46214601F002FC20
:101050001821304603F0AEFB21464FF0FF343046F6
:101060004A4E2A4601F0F6FB494F23460C940B9456
:101070000A9409940894079406940594049403949C
:101080000294019400941F221E21304603F0CCFAF2
:101090003046404E2A46394601F0DCFB23460C948C
:1010A0000B940A9409940894079406940594049464
:1010B000039402940194009417221621304603F001
:1010C000B3FA304600262A46394601F0C3FB03F046
:1010D000A1FF1121304801F069FA03F0C5FF03F0C8
:1010E00099FF10212D4801F061FA2D4C03F0BCFF4F
:1010F0002C4803F004FE2C4803F001FE204603F0C8
:10110000C1FE2A4B666223602046294C2A462949A3
:1011100001F0A0FB204603F0B5FE274B66622A468D
:1011200026492046236001F095FB254C254B264A95
:101130001E7026494FF48073204600F0ADF82A4611
:10114000204623490FB0BDE8F04001F083BB00BF4B
:101150009001002060020020A4010020EC0000208B
:10116000200800206D0C0008640500205947000885
:10117000B805002014070020ED010008AC05002090
:10118000C40500202C070020A4070020B004002084
:10119000F1450008FC040020740700208C070020A3
:1011A000F80700200406002014060020B06E000896
:1011B00034080020D50B0008986E00080D0C0008BC
:1011C000240600205C050020610A00205C08002045
:1011D000E1120008002381808371704738B584795B
:1011E00005463CB901238371084803F072FD28606D
:1011F000204638BD054803F06CFD00242B68C01A5A
:10120000AB889842A4BFAC710124F1E7040600202A
:101210002DE9F047194E1A4F1A4D184803F0E6FB16
:1012200048B33B782BB9184B93F80080B8F1000F06
:1012300008D06C783046631C6B7003F071FB2C4453
:101240006071EAE7114C3046236893F80090104B28
:10125000D3F800A003F064FB0AF8090022681378B1
:101260000133137023680B4A197812689142D4D95C
:1012700083F80080D1E7BDE8F08700BFC40C0020F0
:101280007A0C0020740A0020F0000020A40C00203A
:101290008C0C0020840C002030B50024094D047013
:1012A000296009490A60094A1360094BDC705C70C7
:1012B0001C719C70074B1C70074B1C70074B1C70FB
:1012C00030BD00BF8C0C0020A40C0020840C00203A
:1012D000740A00207C0C00207B0C0020790C00207C
:1012E000704700000122054B1A700A22044B196056
:1012F000044B1A7000230370704700BF7A0C002063
:10130000800C0020740A00200023F0B51D46094C13
:10131000E778F8185E1CDBB29342C0B206DACB5C09
:10132000204480F8053101253346F2E705B1E0702D
:10133000F0BD00BF740A00200078704708B5084867
:1013400003F065FB58B1074B05481A79511C197118
:10135000134493F80511BDE8084003F0F0BA08BD46
:10136000C40C0020740A0020F0B500263046354633
:10137000134B5F789C78A7421DD003EB040E9EF8B8
:1013800005C011F805E0E64508D10135EDB211F8C8
:1013900005E0BEF1000F08BF0120F2E7012806D1E9
:1013A000012A04D106B19C7000F00100F0BD0134A7
:1013B000E4B20126DFE7002EF6D09F70F4E700BF0D
:1013C000740A0020F8B5B24C064623780B2B7BD864
:1013D000DFE813F00C0037005D00A5007A00CB00B9
:1013E000F90022017A007A007A004C01A94D2B788D
:1013F0002A460A2B14D1EB784C1E103114F8015FE9
:10140000581C0A2D1344C0B283F8055103D1D07083
:101410000823137054E08C420346EFD1D370F7E7F2
:1014200000229D49FFF7A0FF9C4B002800F0F080B0
:1014300000221A700A232B70012399490A70237025
:1014400042E0944D2B782A460A2B10D1EB7801F11B
:101450001104243114F8015B581C0A2D1344C0B246
:1014600083F80551D3D08C420346F3D1D6E700224E
:101470008949FFF779FF894B002800F0C9800022D5
:101480001A700A2386492B700A700223D7E7814D10
:101490002B782A460A2B2ED1EB7801F124048831CF
:1014A00014F8015B581C0A2D1344C0B283F805518F
:1014B0001CD1D0700823137041F28832794B1A8006
:1014C000774A137801331370754B1B78032BC2BF17
:1014D0000022754B1A70714B1A78032A40F3D7809B
:1014E00000221A700A226B4B1A70F8BDA142034603
:1014F000D6D1D070DEE700226749FFF735FF674B92
:10150000002800F0858000221A700A2364492B709D
:1015100003230A7014222370624B1A80D4E75D4DB6
:101520002B782A460A2B11D1EB7801F188049531EA
:1015300014F8015B581C0A2D1344C0B283F80551FE
:101540003FF465AF8C420346F2D167E7002252496F
:10155000FFF70AFF514B00285AD000221A700A23C5
:101560004F492B700A70052369E74A4D2B782A46AC
:101570000A2B17D1EB7801F19504CF3114F8015BF8
:10158000581C0A2D1344C0B283F8055105D1D07000
:101590000823137040F2DC5290E7A1420346EDD1DC
:1015A000D070F5E700223C49FFF7DEFE3B4B78B3F5
:1015B00000223B491A700A700F223A4B1A800A2304
:1015C0002B7006233BE7334D2B782A460A2B11D18B
:1015D000EB7801F1CF04DD3114F8015B581C0A2DC2
:1015E0001344C0B283F805513FF411AF8C42034657
:1015F000F2D113E700222849FFF7B6FE274B38B196
:1016000000221A700A2326492B700A70072316E756
:101610001A7801321A7057E71E4D2B780A2B15D114
:10162000EB7801F1DD00E93110F8014B5A1C0A2C6E
:101630002B44D2B283F8054103D1EA7008232B7002
:101640003EE781421346EFD1EA70F7E700221249E4
:10165000FFF78AFE114F024688B914493046FFF75A
:1016600083FE60B93B7801333B702DE704220E4BBB
:101670001A7000220E4B1A700123037024E7002316
:10168000074A3B7013700A232B700B23D7E6F8BD73
:10169000880C0020740A00207C6500087B0C002068
:1016A000790C0020F20000207C0C002080650008EE
:1016B0007A0C002038B5554D04462B78042B00F2E7
:1016C000A380DFE803F0032D555B7A00504803F058
:1016D000F3FA504C2368C01AB0F5FA7FC0F094803A
:1016E0004B4803F0E9FA20604B4CB4F90030013369
:1016F00004D1482249494A4803F068FCA3681A68A3
:1017000063681A42B4F9003060D0013304D13A2240
:101710004249434803F05AFC236962681A6038BDA5
:101720003B4803F0D6FA3F4B1B68C01A42F20F73D6
:10173000984204D900223C4B1A7002232B70344883
:1017400003F0C7FA394B1B68C01AB0F5FA5F5BD3D8
:10175000002237492046FFF707FE002854D0032215
:10176000344B1A700022304B1A7002232B7038BD94
:10177000314B1B78002B47D00323F7E72F4D2979F6
:10178000EA78914201D0FFF7D9FD2B78082B0DD1D3
:101790001F4803F09EFA234D2B68C01A284B1B8864
:1017A000984231D31A4803F094FA2860254B20461A
:1017B0001968BDE83840FFF705BE204B1A79DB7881
:1017C0009A4221D0BDE83840FFF7B8BD013304D1BB
:1017D0003A221249124803F0F9FBE36862680C48A8
:1017E0001A600023134A137001222A70164A1370DC
:1017F000164A137003F06DFA0A4B1860044803F0A0
:1018000068FA0A4B186038BD38BD00BF7C0C002058
:10181000B00C0020AC0C0020900C002006650008E5
:1018200064650008A80C0020F0000020C00C002017
:1018300083650008880C00207A0C0020740A0020C0
:10184000F2000020800C00207B0C0020790C00208E
:101850001FB5144CB4F90030013304D13A221249B7
:10186000124803F0B3FBE368626869461A60104BE4
:10187000002200930F4B1048039303F04DF9684684
:10188000FFF7A0F90D4803F0E8F90C4803F021FA3E
:101890000B4B1860094803F00FFA0A4B186004B0AC
:1018A00010BD00BF900C00200665000864650008AC
:1018B00011120008E0630008C40C0020B00C0020E6
:1018C000C00C0020AC0C002010B50E4C0E4803F0EC
:1018D00016FA14220021204603F0D1FD20460B4CBD
:1018E000032103F060FA1B221A2120464FF4E13352
:1018F00003F00CF82046BDE81040054A054900F009
:10190000A9BF00BF900C0020B00C0020C40C002028
:10191000EC0000206D0C00081FB50268244B1A6013
:101920008279012302930393112A3DD8DFE802F064
:10193000092A0B0D0F11131517191B1D1F21232524
:10194000272900231EE002231CE003231AE00423BE
:1019500018E0052316E0062314E0072312E008230D
:1019600010E009230EE00A230CE00B230AE00C230D
:1019700008E00D2306E00E2304E00F2302E010230D
:1019800000E0112301A90A48019301F04FFA084829
:1019900001F040FB06480A2101F09EF920B90448F5
:1019A00001F040FA80B200E0002005B05DF804FBD1
:1019B0003812002070B5054686B008460C4624490A
:1019C00003F030FA2860013004D122482249302245
:1019D00003F0FCFA20461E4903F040FA431C064679
:1019E00004D11E481C49342203F0F0FAC6F3C42681
:1019F000EF2CAE7103DC2046154903F0D7F9184BE4
:101A0000AC801C680CBB01261E60164B02A89A69AC
:101A100042F400729A619B6903F400730193019B85
:101A2000022302934FF40043049302F0D5F82B688D
:101A30000D4880E818004FF460238460C46006619C
:101A400044618461C36101F069FB06B070BD00BFF1
:101A5000486700082C680008446800089F68000870
:101A6000800D0020001002403812002008B5FFF75A
:101A700053FFC0F3032343EA001080B208BD000007
:101A80003A4970B54B693A4CDB0721602FD58A681B
:101A9000384B384813401D1A8A68374B684203EAAE
:101AA0000203354A68419E1A8D68344B724203EA3C
:101AB0000503324D7241C5EB030CDCF1000343EB2F
:101AC0000C0308B101258D601AB128494FF48075C7
:101AD0008D601BB125494FF480358D6008B902B97E
:101AE0002BB1274B274A1B681068012198472368B0
:101AF000DA685B69920707D09E0705D5204B214A1B
:101B00001B68106800219847236899695A698D07F6
:101B10005B6909D5900507D5190405D5184B194AF5
:101B20001B6810680521984723689E695D69C6F3A4
:101B30008006C5F380255B6946B13DB11A0405D521
:101B40000F4B104A1B6810680721984723685B6990
:101B500056B14DB11B0407D5BDE87040084B094A8A
:101B60001B6810680221184770BD00BF0064004068
:101B7000840D00200300000400030008000003108F
:101B8000C40D0020C80D0020FFF77ABFFFF778BF13
:101B9000FFF776BF10B50C4CA268A4681346B4F1E9
:101BA000006F0CD1131F094A53F8044F42F8044F39
:101BB000074CA242F8D1044A4FF000539360103012
:101BC00043F8201010BD00BF00ED00E0FCFFFF1F38
:101BD000E8000020431C10B5044604D1064807491C
:101BE000262203F0F3F92046002100F0DDFA04F08C
:101BF0000F040120A04010BD69650008B868000806
:101C000070B504464B1C0E46218010D0C1F3031062
:101C100000F080FA05463046FFF7DCFF05F10803C7
:101C2000A36005F1100314356060E360256170BDA9
:101C3000B0F9000000F058BB38B5B0F900300546E7
:101C400001330C4604D108480849492203F0BEF983
:101C5000012CB5F9000008BF2146BDE8384018BF87
:101C6000002100F0A1BA00BF64650008B868000850
:101C70002DE9F04107468846144E4C2404FB0064CD
:101C80000025043445451ED04C237B430121F358E5
:101C900001FA05F21A4213D00D4A236B506901FA7A
:101CA00003F30342D4F818E00AD05361206838B136
:101CB000DEF808201342074B08BF02211B68984733
:101CC00001350434DEE7BDE8F08100BFCC0D002013
:101CD00000040140E00F002000200121FFF7C8BFF1
:101CE00001200146FFF7C4BF02200121FFF7C0BF5A
:101CF00003200121FFF7BCBF04200121FFF7B8BF7B
:101D000005200146FFF7B4BF06200146FFF7B0BF2C
:101D10002DE9F74F9B464B1C81460D46019266D03C
:101D200001F00F0808F1FF33C1F303100E2B09D89F
:101D3000DFE803F00C1014181C1C1C1C1C202020B5
:101D4000202020002C4F0024062616E02B4F0124D3
:101D5000072612E02A4F022408260EE0294F03240A
:101D600009260AE0284F04240A2606E0274F052406
:101D7000172602E0264F0624282600F0CBF94FFA5A
:101D800086FA00900721284600F00EFA50463946A0
:101D9000FFF700FF06F01F01012202FA01F01D49C2
:101DA0004FEA5A1341F823001B4B89F8006053F89F
:101DB00028604C2363431949A9F80C5002FA06F530
:101DC000CA5800202A43C9F80440C9F80800CA507C
:101DD000132303FB0464009A01EB8403DA61C3F864
:101DE00004B0C3F83480019A0D4B1A6000E0084635
:101DF00003B0BDE8F08F00BFD91C0008E11C00084B
:101E0000E91C0008F11C0008F91C0008011D00086D
:101E1000091D000800E100E000690008CC0D002069
:101E2000E00F0020F8B5054644688089164A00F0A6
:101E30000F03C0F3031000F580100126423006FAAC
:101E400003F1800252F8237001F0D4FA4C2161436F
:101E50000E4ABE405358B5F90C0023EA0606132378
:101E600003FB04735650002402EB83014C60991D60
:101E70000C3302EB810102EB83034C605C60214672
:101E800000F086FAAC60F8BD00690008CC0D0020B7
:101E9000A2B1012905D18368023B012B08D98160D9
:101EA0001EE0022921D1836823F00203012B03D114
:101EB00003238360082119E0816007E0012907D12D
:101EC0008368023B012B0DD80223836007210DE0BC
:101ED00002290AD1836823F00203012B02D1836017
:101EE000062103E08260114600E00C21B0F90C00ED
:101EF00000F04EBAF8B52C4B2C4C5E6A1A69236080
:101F0000D20712D5DA68D7070FD56FF001021A6130
:101F1000274B1A6801321A601A68B3B203EB024306
:101F2000244A1360244B01221A701F4B1A6995072B
:101F30001FD5DA6890071CD56FF002021F4D1A6199
:101F40002B889BB233B1288880B202F0BDFA0023FF
:101F50002B800EE01A4F3B684BB14FF6FF70B6B2C4
:101F600002F0B2FA2E803B68013B3B6001E003F0D7
:101F700027F823681A69510714D5DA68520711D572
:101F80006FF004020F4D1A615C6A2B68E31AB3F517
:101F90007A7F07D300F084FE044B04F57A721B6845
:101FA0009A632C60F8BD00BF00080040B412002006
:101FB0001012002004120020F0120020081200204D
:101FC00014120020E40F0020274B37B5DA69274CA4
:101FD00042F00402DA61DA69002502F0040201929B
:101FE000019A1A6942F004021A611A6922F0040285
:101FF0001A6102F0A1F91E4B1E4A23604FF6FF73CF
:10200000E3601D4B20461B682561B3FBF2F3013BE7
:102010006360A56001F0AEFF2946204602F07AF821
:102020002046042102F076F82268144B516A1E20E3
:1020300019601B68124903F57A739363FFF7AAFDD1
:10204000104B4FF080421A6023682046DA6842F055
:102050000102DA60DA6842F00402DA6001F047FF58
:10206000284603B030BD00BF00100240B41200206B
:102070000008004040420F00F8000020E40F00205C
:10208000F51E000800E100E008B502F0C3FF96204D
:1020900003F013F8962003F010F8F8E730B5054682
:1020A0000C46A1B002F0B6FF29466846224603F06E
:1020B00049FA051E03DC02F0D7FF21B030BD094B01
:1020C0001B6823B908480221032200F071FC002498
:1020D0001DF804100448013400F09EFDAC42F7D115
:1020E000E9E700BFEC110020681200200FB407B52B
:1020F00004A951F8040B0191FFF7D0FF03B05DF87C
:1021000004EB04B0704708B502F016F9BDE80840CA
:1021100000F0B4BD1FB5032833D8DFE800F0020E8D
:102120001A261B4B1B489A6942F004029A619B696C
:1021300003F004030393039B27E0154B16489A69A9
:1021400042F008029A619B6903F008030093009B28
:102150001BE00F4B11489A6942F010029A619B698B
:1021600003F010030193019B0FE0094B0C489A699F
:1021700042F020029A619B6903F020030293029BC4
:1021800003E0084802F034FF002005B05DF804FBCE
:102190000010024000080140000C01400010014006
:1021A00000140140406900082DE9F043431C87B04A
:1021B00005460C4604D147484749562202F006FF1F
:1021C000C5F30310FFF7A6FF444B04F00F079A690D
:1021D000C4F3021642F001029A619B69C4F3C31969
:1021E00003F00103ACB2019304F00F08019BB9F1B5
:1021F000000F44D009F1FF31092940D8DFE801F090
:10220000050A0F141920272E3338354A536843F036
:10221000010333E0324A536843F002032EE0304AB0
:10222000536843F0040329E02D4A536843F0080340
:1022300024E02B4A536823F0300343F010031DE0E1
:10224000274A536823F0C00343F0400316E0244AB2
:10225000536823F4406343F400630FE0204A53685B
:1022600043F440730AE01E4A536843F4406305E0B8
:102270001B4A536823F4C04343F480435360012353
:1022800003FA08F30293174B02A953F82730049678
:1022900003930323059300F0E7FFA4F10D03012B43
:1022A00007D80F4A536823F0E06343F0806353601C
:1022B00009E00F2D07D10A4A536823F0E06343F089
:1022C0000073536002E0133C012CF4D907B0BDE861
:1022D000F08300BF696500086169000800100240D2
:1022E00000000140B8690008F8B5431C07460D46D8
:1022F00004D125482549A42202F068FEC7F3031043
:10230000FFF708FFBCB204F00F06072E8DBF04F0E4
:102310000703B30002469B0088BF021D002D31D089
:10232000022D02D9032D21D0F8BD14680321994054
:1023300021420BD114680821994021431160116892
:10234000042404FA03F321EA03031360012D15BFEB
:102350000123C368C26805FA06F115BFB3401943EB
:1023600022EA0303C16018BFC360F8BD106805FA14
:1023700003F101421FBF1168042000FA03F30B436D
:1023800018BF1360F8BD00BF6965000861690008E7
:102390002DE9F04184B20646C0F303100F46FFF763
:1023A000B9FE04F00F08B8F1070F8BBF04F0070463
:1023B0004FEA8804A400026888BF42684FF0030314
:1023C00003FA04F394BF0546051D1A4012D129688B
:1023D0000823A3400B4016D029680423A3400B42D6
:1023E00010D1C268012303FA08F3134214BF01237A
:1023F000022308E02A680423A34013420CBF0023F1
:10240000032300E0134607F00F013046BDE8F0411A
:1024100041EA0311FFF7C8BE30B50268254B89B009
:1024200005460C4608461A60002103F089FE40B9B3
:1024300020464FF07E5103F0A1FE18B14FF07E54BC
:1024400000E00024E86803F085FC214603F0DAFC94
:1024500003F09EFE60230193AB682861B0FBF3F0AC
:102460000023039304930593069307932B7D029017
:10247000013B032B1CD8DFE803F008020406042408
:1024800004E0082402E00C2400E00024094801A92B
:10249000224601F0CFFD10B1074802F0A9FD6B7D87
:1024A0000448214613B101F06DFE01E001F048FE41
:1024B00009B030BDE80F0020EC69000838B5C468E9
:1024C00094B1006903F046FC0546204603F042FC47
:1024D0000146284603F04AFD4FF07E51044603F0C2
:1024E0004DFE18B9204638BD002038BD4FF07E5053
:1024F00038BD00002DE9F041D0F80080264C05469B
:102500000E46C4F80080FFF7D9FF41F21113D8F846
:102510002020074613405BB940F24443D8F82020FE
:1025200013402BB9D8F8003023F00103C8F800306D
:10253000B6F5803FACBF4FF4FA730123AB60174B85
:10254000174A1B68B3FBF2F2AB685343013BB3F588
:10255000803F636002D3134802F04AFDAA68731EED
:10256000B3FBF2F3B3F5803FE36002D30E4802F011
:102570003FFD002308482361A36001F015FDEE60D4
:1025800028463946FFF748FF2268136843F00103E5
:102590001360BDE8F08100BFE80F0020F8000020C4
:1025A00040420F00036A00081F6A00087FB5044616
:1025B0000E4608462C4902F035FC2060013004D15B
:1025C0002A482B492D2202F001FD3046264902F00F
:1025D00045FC431C054604D126482549312202F01A
:1025E000F5FCC5F3C4232375234A2368C5F30045CE
:1025F000934265750AD1214B9A6942F400629A614F
:102600009B6903F400630193019B1BE0B3F1804FCE
:102610000BD103F50433DA6942F00102DA61DB69B8
:1026200003F001030293029B0CE0154A934209D187
:10263000124BDA6942F00202DA61DB6903F002034D
:102640000393039B3046084902F0B0FB0023E3608C
:1026500023610123A680A360204644F62061FFF792
:1026600049FF04B070BD00BFD4650008386A000897
:10267000506A00089F680008002C014000100240CA
:10268000000400404FF47A735943FFF733BF38B565
:102690000446084603F062FB0546E06803F05AFB77
:1026A0000146284603F062FC01462046BDE838405A
:1026B000FFF7B2BE08B5084B1B685BB9074802219B
:1026C000032200F075F905484FF41651BDE80840A3
:1026D00000F012BA08BD00BFEC1100206812002003
:1026E00002284FF0000309DD0749C21E51F82200FD
:1026F00041F8223020B103685B68184718467047DC
:102700004FF0FF30704700BF28100020022870B53E
:102710000C4615460FDC0E4B1B680BB9FFF7CAFFC2
:102720006619B44205D00B4814F8011B00F074FA86
:10273000F7E7284670BD084B033853F8200020B156
:10274000BDE8704003681B6818474FF0FF3070BD4C
:10275000EC1100206812002028100020022810B57B
:102760000C460ADC0B4B1B680BB9FFF7A3FF0A48AA
:1027700000F032FA2070012010BD084B033853F8E6
:10278000200020B1BDE8104003689B6818474FF057
:10279000FF3010BDEC11002068120020281000202E
:1027A000022807DD064B033853F8200020B10368E8
:1027B0001B691847002070474FF0FF30704700BF7B
:1027C0002810002008B5012000F046F8704708B531
:1027D000FFF799FCFFF7FAFF08BD704708B5FFF750
:1027E000FCFFBDE80840FEF757BA00000C4A10B5E0
:1027F00013681844EFF30881884205D3094B0C2273
:102800001A604FF0FF3010BD0749096821B1074C2D
:10281000246821448842F1D21060184610BD00BFE0
:10282000F4000020F41200202410002028110020C1
:102830000546074C08B52368986802F0F7FC236842
:10284000D86802F0F3FC0DB1FFF71EFCFEE700BFF5
:10285000FC0000200120704708B5FFF7E9FF0120C8
:1028600070477047704708B5FFF7FBFF08BD08B514
:10287000FFF7F8FF08BD000010B502F0D7FD0446D1
:1028800010B9024802F0B4FB204610BD586B000896
:1028900008B102F0D3BD70474309064900F01F009C
:1028A00001228240203341F82320BFF34F8FBFF332
:1028B0006F8F704700E100E00346426810B517498A
:1028C0001C68920188188C509A68D9684260024648
:1028D00042F8081F1969516059699160196A00F13D
:1028E000100291600021C1848184C1858185B3F982
:1028F0001A10013101D1082305E0B3F91830013372
:102900000CBF04230C23536001F0E9FC20B1BDE8A7
:102910001040034802F06CBB10BD00BF2C1100201A
:10292000E56B00081A4BF7B5074653F820001E4622
:1029300000282BD0174CBD0163591A6852060AD5DE
:10294000DB68590607D5144B01211B68984763596A
:102950006FF040021A6063591A6892060DD5DB6861
:1029600098060AD50C4B56F827001B68002198479B
:10297000084B6FF020025B591A6063591A681107FF
:1029800004D55A69D20744BF5B68019303B0F0BD18
:10299000F01100202C110020FC1100200020FFF776
:1029A000C1BF0120FFF7BEBF0220FFF7BBBF000081
:1029B000F0B5044685B008460E464549154602F076
:1029C00031FA44490746284602F02CFA01463846B7
:1029D00002F00AFA2060013004D13F483F496422E6
:1029E00002F0F4FA23683E4A934213D13D4BDA6871
:1029F00042F48042DA60DA6822F48042DA609A694E
:102A000042F480429A619B6903F480430193019BE5
:102A100000232CE0344A934213D1324B1A6942F41A
:102A200000321A611A6922F400321A61DA6942F43A
:102A30000032DA61DB6903F400330293029B012365
:102A400015E02A4A934213D1264B1A6942F4802298
:102A50001A611A6922F480221A61DA6942F480222A
:102A6000DA61DB6903F480230393039B0223636031
:102A70003046174902F09AF92846164902F096F9AD
:102A8000721C03D030460121FFF72EFC6B1C03D0D3
:102A900028460121FFF728FC4FF41653A3600023BA
:102AA000E360236163612362268365832046FFF729
:102AB00003FF22680C4B9A4207D10D4B01221A608A
:102AC0000C4821464C2202F0CFFC05B0F0BD00BFFF
:102AD000006700088C650008FD6B0008196C000891
:102AE000003801400010024000440040004800400F
:102AF000EC110020681200208160FFF7DDBE0000AD
:102B0000034B19604168034B43F82120704700BF15
:102B1000FC110020F011002038B509C80D462149EC
:102B2000884202D1204925240CE02049884202D164
:102B30001F49262406E01F49884219BF00210C4680
:102B40001D4927241D489B01AAB1C258D36815B955
:102B500043F0200301E043F0400365B2D360284610
:102B6000FFF718F804F007040123154A6D09A34084
:102B700042F8253038BDC358DA6835B922F0200252
:102B8000DA60DB681A0606D538BD22F04002DA604A
:102B9000DB689B0604D42046BDE83840FFF77CBEC6
:102BA00038BD00BF003801409D29000800440040A6
:102BB000A329000800480040A92900082C11002082
:102BC00000E100E04368034A9B01D3581868C0F352
:102BD000401070472C11002038B50546446828463F
:102BE000FFF7F0FF0028FAD0054AA301D358E9689F
:102BF000586809B9C0B238BDC0F3080038BD00BF7D
:102C00002C1100204368034A9B01D3581868C0F375
:102C1000C01070472C11002070B506460C46456860
:102C20003046FFF7EFFF0028FAD0054AF168AB0104
:102C3000D35809B9E4B201E0C4F308045C6070BD84
:102C40002C11002008488546002103E0074B5B5803
:102C5000435004310648074B42189A42F6D301F01C
:102C6000F9FBFDF789FAFEE700500020A470000888
:102C7000EC00002074010020FEE77047074A08B509
:102C80001368032043F01003136000F0DBFA0F20F9
:102C9000FFF79AF9FFF7F1FF002008BD002002407E
:102CA000024A136801331360704700BF001200200E
:102CB000014B1868704700BF0012002013B5019047
:102CC000FFF7F6FF0446FFF7F3FF019B001B984256
:102CD000F9D302B010BD7047F7B5044600260D4683
:102CE0000196FFF7E5FF236807469A68D20507D5E6
:102CF000A36A84F8246043F02003A362012083E0E8
:102D00005A68D60511D4DB6A13F4700F0DD122680E
:102D1000136899072AD4681CFAD0002D52D0FFF707
:102D2000C7FFC01BA842F2D94CE0384B02201E68F6
:102D300000F0DEFF2368364A1969B6FBF0F00A405E
:102D40001ABBD968334A0A40FAB91969324A0A40AB
:102D5000002A2ED1DA68314B1340002B14BF2923EF
:102D6000142300FB03F6019BB34228D322686FF0C3
:102D700012031360A36A43F40073A362936803F41D
:102D80006023B3F5602F31D12EE01969224A0A4041
:102D90001AB9D968214A0A406AB11969204A0A4019
:102DA0005AB9DA681E4B1340002B14BFFC2354237E
:102DB000D7E72923D5E75423D3E7FC23D1E76B1CBE
:102DC0000ED045B9A36A032043F00403A362002395
:102DD00084F8243018E0FFF76BFFC01BA842F1D83D
:102DE000019B01330193BEE7E3680BB100200BE0C8
:102DF000A36A23F48073A362A06A10F48050F5D113
:102E0000A36A43F00103A36203B0F0BDF800002001
:102E10002449922424499200922449129224490080
:102E2000499224000368D86C70470000F7B500236E
:102E3000019390F82430012B00F0AB80012380F83F
:102E400024304B680268062B0D6818D8576B4FF476
:102E5000787494FAA4F6B6FA86F6013B94FAA4F4D0
:102E6000B4FA84F45E4363434FF01F0E0EFA06F685
:102E700027EA060605FA03F33343536330E00C2BCD
:102E80004FF4787416D8176B94FAA4F6B6FA86F64F
:102E9000073B94FAA4F4B4FA84F45E4363434FF01E
:102EA0001F0E0EFA06F627EA060605FA03F3334369
:102EB000136315E0D76A94FAA4F6B6FA86F60D3BCA
:102EC00094FAA4F4B4FA84F45E4363434FF01F0E03
:102ED0000EFA06F627EA060605FA03F33343D36231
:102EE000092D4FF03803896816D9D76893FAA3F6ED
:102EF000B6FA86F6A5F10A0493FAA3F3B3FA83F3BC
:102F0000664363434FF0070E0EFA06F627EA0606FD
:102F100099403143D16012E0166993FAA3F4B4FAF0
:102F200084F493FAA3F3B3FA83F36C436B43072758
:102F300007FA04F426EA0404994021431161A5F13B
:102F40001003012B01D900231EE0134B9A4216D126
:102F500093681B02F7D49368102D43F40003936029
:102F6000F1D10E4B0E4A1B68B3FBF2F20A23534316
:102F70000193019B002BE6D0019B013BF8E7836A9C
:102F800043F0200383620123002280F824201846A6
:102F900000E0022003B0F0BD00240140F800002052
:102FA00040420F0073B500230193036804469A68FA
:102FB000D20701D5002026E09A6842F001029A600B
:102FC000124B134A1B68B3FBF2F30193019B13B13D
:102FD000019B013BF9E7FFF76BFE064623689B6800
:102FE00013F00105E6D1FFF763FE801B0228F5D937
:102FF000A36A84F8245043F01003A362E36A01201B
:1030000043F00103E36202B070BD00BFF80000208E
:1030100040420F0090F8243010B5012B044655D0E3
:10302000012380F82430FFF7BDFF00284AD1A36AAE
:10303000274A23F4407323F0010343F48073A3620F
:103040002368934204D123494A6812F4702F05D1B2
:10305000A26A22F48012A2625A6804E0A26A42F4D0
:103060008012A2624A68520541BFA26A22F440520D
:1030700042F48052A262A26A12F480521CBFE26A39
:1030800022F00602E262002284F824206FF002029D
:103090001A609A6802F46022B2F5602F0CD10C4AD3
:1030A000934205D1A2F58062526812F4702F03D1C9
:1030B0009A6842F4A00202E09A6842F480129A6090
:1030C000002010BD002384F8243010BD022010BD64
:1030D000002801400024014038B5036804469A687E
:1030E000D20701D4002038BD9A6822F001029A600C
:1030F000FFF7DEFD054623689B68DB07F2D5FFF787
:10310000D7FD401B0228F6D9A36A012043F0100323
:10311000A362E36A43F00103E36238BD38B50446B5
:10312000002800F08880836A23B9C36280F82430C5
:10313000FFF7D1FD2046FFF7CFFFA36A13F0100F72
:10314000A36A75D1002873D123F4885323F00203B6
:1031500043F00203A362E568022393FAA3F3B3FAF0
:1031600083F3E0696268A1680243B1F5807F05FAE4
:1031700003F040EA020005D001290CBF4FF4807231
:10318000002200E00A466369012B15D165B94FF4AE
:10319000604595FAA5F5B5FA85F5A36942F4006294
:1031A000013BAB401A4307E0A36A43F02003A3624C
:1031B000E36A43F00103E3622368B1F5807F5D6851
:1031C00025F4694542EA05025A609D681B4A02EAF5
:1031D000050242EA00029A6001D0012909D14FF4A8
:1031E000700191FAA1F1B1FA81F12269013A8A40A4
:1031F00000E00022D96A21F470010A43DA629A6879
:103200000F4B1340834208D10020E062A36A23F0F1
:10321000030343F00103A36238BDA36A23F0120342
:1032200043F01003A362E36A43F00103E36202E0A8
:1032300043F01003A362012038BD00BFFDF7E1FF9A
:10324000FE0E1FFF074A00F00700D36823F4E06377
:103250001B041B0C43F0BF6343F4003343EA002319
:10326000D360704700ED00E00023F7B51D46012252
:103270000C68AA401440944240F0AC804A68122A7C
:103280002BD00ED8022A25D004D84AB3012A30D137
:10329000CB682EE0032A1BD0112A2AD1CB68043335
:1032A00027E04F4EB2421BD006D8A6F58016B24298
:1032B00016D006F5803608E04A4EB24210D006F528
:1032C0008036B2420CD0A6F58016B24211D107E08A
:1032D00000230EE0CB6808330BE0CB680C3308E02A
:1032E0008B682BB1012B0CBF04614461082300E003
:1032F0000423FF2C97BF8646A5F108070668AF0098
:1033000084BF4668BF004FF00F0202FA07FC26EAAE
:103310000C0603FA07F746EA070688BF00F1040E19
:10332000CEF800604F68FE0054D52F4E05F0030C18
:10333000D6F818E04FEA8C0C4EF0010EC6F818E0F3
:10334000B66902FA0CF206F001060196019E25F01C
:10335000030606F1804606F58036D6F808E02EEA28
:10336000020E224A90420ED002F5806290420CD0AA
:1033700002F5806290420AD002F5806290420CBF52
:103380000322042204E0002202E0012200E00222E3
:1033900002FA0CF242EA0E02B260154A17F4803FBC
:1033A000166814BF2643A6431660566817F4003FFC
:1033B00014BF2643A6435660966817F4801F14BFB7
:1033C0002643A6439660D668BF024CBF344326EA24
:1033D0000404D4600135102D7FF449AF03B0F0BD73
:1033E00000002110000031100010024000080140D0
:1033F00000040140F0B5002531FA05F35DD0012449
:10340000AC400C4057D0FF2C98BF86466FEA0404AE
:103410008BBFA5F1080703684368AF0088BFBF00F2
:103420004FF00F0606FA07F223EA02034FF00402F8
:1034300002FA07F288BF00F1040E1343CEF8003001
:10344000C36825F00302234002F18042C36002F505
:10345000803205F003079368BF00BE4006EA030E02
:10346000164B98420ED003F5806398420CD003F5BA
:10347000806398420AD003F5806398420CBF03230F
:10348000042304E0002302E0012300E00223BB4008
:103490009E4510D1936823EA0606094B96601A6888
:1034A00022401A605A6822405A609A6822409A6004
:1034B000DA681440DC6001359EE7F0BD0008014089
:1034C000000401400368F7B50546D80703D42B680C
:1034D000990773D4F0E0B74C636803F00C03042B36
:1034E00007D0636803F00C03082B16D16368DA0376
:1034F00013D54FF4003393FAA3F2226893FAA3F39F
:10350000B3FA83F303F01F0322FA03F3DB07DED5DC
:103510006B68002BDBD1012030E26B68B3F5803F94
:1035200013D05BB9236823F480332360236823F42A
:1035300080232360FFF7BCFB06462FE0B3F5A02FE6
:10354000236806D143F480232360236843F4803347
:1035500005E023F480332360236823F48023236071
:10356000FFF7A6FB06464FF4003393FAA3F2226856
:1035700093FAA3F3B3FA83F303F01F0322FA03F3DE
:10358000DF07A4D4FFF794FB801B6428EBD903204A
:10359000F4E1FFF78DFB801B6428F8D84FF400336B
:1035A00093FAA3F2226893FAA3F3B3FA83F303F036
:1035B0001F0322FA03F3D807EBD488E77D4C636836
:1035C00013F00C0F07D0636803F00C03082B20D115
:1035D0006368D9031DD4022393FAA3F2226893FAF5
:1035E000A3F3B3FA83F303F01F0322FA03F3DA071A
:1035F00002D52B69012B8ED12268F82191FAA1F115
:10360000B1FA81F16B6922F0F8028B401343236019
:1036100052E02A69012372B393FAA3F2B2FA82F25A
:10362000920002F1844202F584021360FFF740FB2E
:103630000646022393FAA3F25E48226893FAA3F3A4
:10364000B3FA83F303F01F0322FA03F3DB0705D475
:10365000FFF72EFB801B0228EBD998E70268F821C0
:1036600091FAA1F1B1FA81F16B6922F0F8028B4075
:103670001343036020E093FAA3F3B3FA83F39B00B0
:1036800003F1844303F584031A60FFF711FB064638
:10369000022393FAA3F2226893FAA3F3B3FA83F313
:1036A00003F01F0322FA03F3DF0705D5FFF700FB42
:1036B000801B0228ECD96AE72B681C0746D5AA694B
:1036C0003C4C01233C4912B393FAA3F2B2FA82F2C2
:1036D00041F82230FFF7ECFA0646022393FAA3F2F0
:1036E00093FAA3F2626A93FAA3F3B3FA83F303F0B3
:1036F0001F0322FA03F3D80705D4FFF7D9FA801B7A
:103700000228EAD943E70120FFF7D8FA1EE093FA2E
:10371000A3F3B3FA83F341F82320FFF7C9FA06466F
:10372000022393FAA3F293FAA3F2626A93FAA3F341
:10373000B3FA83F303F01F0322FA03F3D90705D585
:10374000FFF7B6FA801B0228EAD920E72B685A0750
:1037500004D4EA69002A40F08680DEE0154C174A5E
:10376000E36943F08053E361E36903F0805301931D
:10377000019B136843F480731360FFF799FA0646C0
:103780000E4B1B68DB0505D4FFF792FA801B6428FB
:10379000F6D9FCE6EB68012B18D08BB9236A23F02D
:1037A00001032362236A23F004032362FFF780FAF4
:1037B000064640E000100240800442420070004093
:1037C000052B236A06D143F004032362236A43F0E6
:1037D000010305E023F001032362236A23F00403BD
:1037E0002362FFF765FA0646022393FAA3F293FADF
:1037F000A3F2B2FA82F242F0400252099A420CBF9E
:10380000226A626A93FAA3F3B3FA83F303F01F0305
:10381000DA40D7079DD4FFF74BFA41F28833801B7B
:103820009842E1D9B3E6FFF743FA41F28833801BAF
:1038300098423FF6ACAE022393FAA3F293FAA3F2B6
:10384000B2FA82F242F0400252099A420CBF226A56
:10385000626A93FAA3F3B3FA83F303F01F03DA4027
:10386000D007E0D475E7464C636803F00C03082BDF
:103870003FF451AE022A4FF080735CD193FAA3F368
:10388000B3FA83F39B0003F1844303F5840300221E
:103890001A60FFF70DFA06464FF0007393FAA3F291
:1038A000374F226893FAA3F3B3FA83F303F01F03AD
:1038B00022FA03F3D90732D42E6AB6F5803F01BF4E
:1038C000796821F40030A968014308BF7960636812
:1038D0006A6A23F474133243134363604FF08073B6
:1038E00093FAA3F3B3FA83F39B0003F1844303F544
:1038F000840301221A60FFF7DBF905464FF00073DD
:1039000093FAA3F2226893FAA3F3B3FA83F303F0D2
:103910001F0322FA03F3DA0707D500202EE0FFF792
:10392000C7F9801B0228B7D931E6FFF7C1F9401B60
:103930000228E3D92BE693FAA3F3B3FA83F39B00AF
:1039400003F1844303F5840300221A60FFF7B0F902
:1039500005464FF0007393FAA3F2226893FAA3F39B
:10396000B3FA83F303F01F0322FA03F3DB07D4D582
:10397000FFF79EF9401B0228EBD908E603B0F0BD23
:10398000001002401F4B70B503F110052E4686B0A3
:1039900002AC224618685968083303C2AB42144689
:1039A000F7D133881848ADF80430416801F00C03B2
:1039B000082B23D14FF4701292FAA2F2B2FA82F2DB
:1039C00001F47013D34006AA134413F8102CCB0350
:1039D00011D543684FF4003191FAA1F1B1FA81F1A8
:1039E00003F40033CB4006A90B4413F8140C074B27
:1039F000B3FBF0F000E00648504300E0034806B097
:103A000070BD00BFE26C00080010024000127A0096
:103A100000093D00544AF8B51368064603F0070351
:103A200099420D460AD831688C0713D54F48436830
:103A300023F0F002B368134343600BE0136823F0F4
:103A400007030B431360136803F007038B42EAD0AC
:103A50000120F8BDC80706D4434A136803F00703E2
:103A60009D424DD356E07268404C012A02D14FF47A
:103A7000003304E0022A0CBF4FF00073022393FAD4
:103A8000A3F1216893FAA3F3B3FA83F303F01F03BE
:103A900021FA03F3D907DBD5636823F003031A4344
:103AA0006260FFF705F973680746012B0DD1636863
:103AB00003F00C03042BCFD0FFF7FAF841F2883360
:103AC000C01B9842F3D90320F8BD022B13D16368C1
:103AD00003F00C03082BBFD0FFF7EAF841F288335C
:103AE000C01B9842F3D9EEE7FFF7E2F841F28833C2
:103AF000C01B9842E7D8636813F00C0FF4D1ABE712
:103B0000136823F007032B431360136803F00703C4
:103B1000AB429DD13168154C11F0040F05D063689C
:103B200023F4E062F368134363600B0741BF6368EB
:103B3000326923F4605343EAC20348BF6360FFF76E
:103B400021FF6368F02292FAA2F2B2FA82F203F045
:103B5000F003D340064AD35CD840064B18600F20D0
:103B6000FEF732FA0020F8BD0020024000100240AB
:103B7000066D0008F8000020084B4FF4E0625B6817
:103B800092FAA2F2B2FA82F203F4E063D340044A5A
:103B9000D35C044A1068D840704700BF0010024050
:103BA000166D0008F8000020084B4FF460525B6867
:103BB00092FAA2F2B2FA82F203F46053D340044ABA
:103BC000D35C044A1068D840704700BF0010024020
:103BD000166D0008F80000200368F7B5DC070546FD
:103BE00067D5404C404AE36943F08053E361E369A1
:103BF00003F080530193019B136843F480731360B7
:103C0000FFF756F80646384B1B68D80506D4FFF771
:103C10004FF8801B6428F6D9032060E0236A3148FE
:103C200013F4407306D1236A23F440726B68134384
:103C300023623EE06A6802F440729342F3D0016A64
:103C40004FF4803321F4407793FAA3F2B2FA82F270
:103C5000264E4FF0010E46F822E093FAA3F3B3FA92
:103C600083F30022C90746F823200762DBD5FFF75C
:103C70001FF80646022393FAA3F293FAA3F2B2FACC
:103C800082F242F0400252099A420CBF226A626AF2
:103C900093FAA3F3B3FA83F303F01F03DA40D207D6
:103CA000C1D4FFF705F841F28833801B9842E1D96F
:103CB000B2E72868830741BF0A494B6823F44042B2
:103CC000AB6844BF13434B6010F0100007D00549A8
:103CD00000204B6823F48002EB6813434B6003B071
:103CE000F0BD00BF001002400070004000044242DE
:103CF0003F4BF0B503F110060446374687B002ADDE
:103D00002A4618685968083303C2B3421546F7D1EA
:103D10003B88022CADF8043051D0102C02D0012C7D
:103D200062D12EE033494C68086810F080705CD096
:103D30004FF4701292FAA2F2B2FA82F204F4701303
:103D4000D34006AA1344E20313F8103C11D54A6885
:103D50004FF4003090FAA0F0B0FA80F002F4003294
:103D6000C24006A8024412F8140C234AB2FBF0F039
:103D700000E0224858434B685B0236D440000323DE
:103D80002CE040F202311B4A136A1940B1F5817FE1
:103D900027D003F44073B3F5007F05D1536A49F689
:103DA000404013F0020F07E0B3F5407F1CD14FF203
:103DB0002440136813F4003F08BF002015E0FFF70C
:103DC000F3FE0C4B4FF480425B6892FAA2F2B2FA17
:103DD00082F203F44043D34001335B00B0FBF3F0C5
:103DE00003E04FF4004000E0002007B0F0BD00BF4A
:103DF000F46C00080010024000127A0000093D0037
:103E0000036A70B523F001030362036A42688469A0
:103E10000D6824F07304254323F002048B682343C8
:103E20000A4CA0420BD1CC6823F0080323438E69CF
:103E30004C6922F44072344323F00403224342606D
:103E40004A6885614263036270BD00BF002C014077
:103E5000036A30B523F480730362036A4268C4695D
:103E60000D6824F073042C438D6823F4007343EA37
:103E700005230C4DA8420ED1CD6823F4006343EA1C
:103E800005234D6922F4405242EA05128D6923F45C
:103E9000806342EA051242604A68C461C2630362F9
:103EA00030BD00BF002C0140036A30B523F48053BD
:103EB0000362036A4468C2690D6822F4E64242EA7A
:103EC00005228D6823F4005343EA0533064DA842CA
:103ED00002BF4D6924F4804444EA85144460C26101
:103EE0004A680264036230BD002C014070470268DA
:103EF000022380F83930136843F001031360012373
:103F000080F839300020704770470000184A036875
:103F100090420AD0B0F1804F07D0A2F5943290427F
:103F200003D002F58062904215D14A6823F07003F5
:103F300013430F4A90420AD0B0F1804F07D0A2F548
:103F40009432904203D002F58062904203D1CA6855
:103F500023F44073134303608B68C3620B6883626E
:103F6000034B984204BF0B6903630123436170470D
:103F7000002C014010B50446A0B190F8393003F090
:103F8000FF021BB980F83820FFF7B0FF022384F846
:103F900039302068211DFFF7B9FF012384F839303B
:103FA000002010BD012010BD10B50446A0B190F84E
:103FB000393003F0FF021BB980F83820FFF7A4FF67
:103FC000022384F839302068211DFFF79FFF012369
:103FD00084F83930002010BD012010BD036A30B5CF
:103FE00023F010030362036A426884690D6824F4B5
:103FF000E64444EA05248D6823F0200343EA0513D0
:104000000B4DA8420ED1CD6823F0800343EA05137F
:104010004D6922F4406242EA85028D6923F0400333
:1040200042EA850242604A6884618263036230BD6D
:10403000002C014038B590F838300446012B0D466D
:104040004FF0020058D0012384F8383084F839004A
:104050000C2A4BD8DFE802F0074A4A4A174A4A4A74
:10406000294A4A4A39002068FFF7CAFE23689A693C
:1040700042F008029A619A6922F004029A619969F1
:104080002A690A430FE02068FFF7A8FF236829691F
:104090009A6942F400629A619A6922F480629A6194
:1040A0009A6942EA01229A6120E02068FFF7D0FE77
:1040B0002368DA6942F00802DA61DA6922F0040260
:1040C000DA61D9692A690A430FE02068FFF7ECFE3C
:1040D00023682969DA6942F40062DA61DA6922F454
:1040E0008062DA61DA6942EA0122DA6101230020A2
:1040F00084F8393084F8380038BD10B50123046ADB
:104100008B4024EA03030362036A8A401343036279
:1041100010BD000010B5044601220068FFF7EDFF56
:104120002368064A0020934202BF5A6C42F40042C0
:104130005A641A6842F001021A6010BD002C014056
:1041400010B5044601220068FFF7D7FF2368064A2E
:104150000020934202BF5A6C42F400425A641A682B
:1041600042F001021A6010BD002C014010B504237A
:10417000046A8B4024EA03030362036A8A40134300
:10418000036210BD10B5044604220068FFF7EEFF7D
:10419000236800205A6C42F400425A641A6842F0C4
:1041A00001021A6010BD00002DE9F04705680169A1
:1041B0002B69804623F44052C368192413432B61B2
:1041C0008368EA6819434369194322F4B05323F022
:1041D0000C030B43EB606B6923F440728369134358
:1041E0006B613D4B9D4231D1FFF7DEFC6043D8F857
:1041F00004604FF06409B600B0FBF6F6FFF7D4FC9C
:104200006043D8F80430B6FBF9F69B00B0FBF3F737
:10421000FFF7CAFC6043D8F8043036019B00B0FBBE
:10422000F3F0B0FBF9F009FB10731B013233B3FB61
:10423000F9F303F0F007FFF7B7FC6043D8F8042068
:104240009200B0FBF2FAFFF7AFFC30E0FFF794FC0E
:104250006043D8F804604FF06409B600B0FBF6F68E
:10426000FFF78AFC6043D8F80430B6FBF9F69B00F0
:10427000B0FBF3F7FFF780FC6043D8F80430360159
:104280009B00B0FBF3F0B0FBF9F009FB10731B01CE
:104290003233B3FBF9F303F0F007FFF76DFC604333
:1042A000D8F804209200B0FBF2FAFFF765FC444313
:1042B000D8F804008000B4FBF0F0B0FBF9F009FB83
:1042C00010A212013232B2FBF9F202F00F02BB1857
:1042D0003344AB60BDE8F08700380140704710B54B
:1042E000044630B390F8393003F0FF021BB980F870
:1042F0003820FFF7F3FF2268022384F83930D368AF
:10430000204623F40053D360FFF74EFF23680020BC
:104310001A6922F490421A615A6922F02A025A61FB
:10432000DA6842F40052DA600123E06384F839303D
:1043300010BD012010BD0000114A124B516801F060
:104340000C01042901D0082901D00F490EE0516861
:104350005068C1F38341C00301F1020102D55068E6
:10436000800301D5094800E00748414319605268BD
:104370000749C2F30312895C1A68CA401A60704781
:1043800000100240F800002000127A0000093D00F1
:10439000066D000830B5012391B0069310B94FF4B3
:1043A000803301E04FF4A02307934FF480330024BF
:1043B00002250E9306A84FF4E01308940D950F9371
:1043C000FFF780F878B90F23019303904FF48063CF
:1043D0000590294601A802950493FFF71BFBB0FA4C
:1043E00080F0400900E0204611B030BD30B5032315
:1043F00091B0069301230A93102300240B93022506
:104400004FF4601306A807940D950E940F93FFF7D1
:1044100059F878B90F23019303904FF48063059006
:10442000294601A802950493FFF7F4FAB0FA80F048
:10443000400900E0204611B030BD08B50120FFF76B
:10444000A9FF30B9FFF7A6FF18B9FFF7CFFF00B9F2
:10445000FEE708BD10B5174C236843F00103236045
:104460006268154B1340636023684FF0006223F0CD
:10447000847323F480332360236823F48023236030
:10448000636823F4FE0363604FF41F03A3600B4BC8
:104490009A600B4B0B4A1A60FEF7F0FBFFF7CDFF5B
:1044A000236943F004032361236923F00403236198
:1044B00010BD00BF001002400000FFF800ED00E05A
:1044C000F800002000127A00044B054A136058637C
:1044D000DA6842F00202DA60704700BF000800406C
:1044E000B4120020054B186830B901221A60044A42
:1044F000044B1A60FDF768BD704700BF0C12002026
:1045000000080040B41200200B4B0C4A10B5136099
:104510000B4A1C4612680AB9FFF7E4FF094A002358
:1045200009491370636A08681278012A0ABF074BA9
:1045300003EB0040186810BD00080040B4120020D2
:104540000C120020F0120020101200200412002093
:1045500038B50446FFF7D8FF144B201A5D6A0028CF
:10456000ADB203DCBDE8384000F02ABD104B114C61
:10457000021480B21A6020802288C5F57F4392B26F
:10458000FF339A4207DC2088284480B2FFF79CFF63
:104590000023238038BD4FF6FF70FFF795FF20887A
:1045A00080B20130284480B2208038BD000800402D
:1045B0001412002008120020034B044A1360DA682A
:1045C00022F00202DA60704700080040B4120020B6
:1045D000044B054A13601A69920744BF6FF0020248
:1045E0001A61704700080040B412002070477047FD
:1045F00070B504460546064B00F14006036055F8C9
:10460000040F08B1FEF744F9B542F8D1204670BD59
:10461000286D000810B50446FFF7EAFF2046FEF7B4
:1046200037F9204610BD00002DE9F0410546A846A7
:1046300088B0ADF80430BDF938302F48ADF80630F9
:10464000BDF93C300024ADF80830BDF94030286099
:10465000ADF80A30BDF94430ADF80010ADF80C30BB
:10466000BDF94830ADF80220ADF80E30BDF94C3040
:104670006C64ADF81030BDF95030ADF81230BDF9B2
:104680005430ADF81430BDF95830ADF81630BDF9DE
:104690005C30ADF81830BDF96030ADF81A30BDF9B6
:1046A0006430ADF81C30BDF96830ADF81E303DF90E
:1046B00014707B1C0CD01420FEF7DEF80646002197
:1046C000142200F0DCFE3046394600F06CFB00E0BE
:1046D000002601371FBF01236A6CA340134304F176
:1046E000010448F8046F18BF6B64102CDFD1284612
:1046F00008B0BDE8F08100BF286D000803682DE90F
:10470000F0419B68064688469847012456F8245095
:10471000631E95B148FA03F7B5F9003007F00107B9
:10472000013304D109480A493A2200F04FFC6B6872
:104730000FB1EA6800E02A6913600134112CE5D159
:1047400033683046BDE8F041DB681847646500080F
:10475000386D00087047000010B50446074B40F85C
:10476000183BFDF75FFB04F13800FCF72BFA04F16E
:104770002800FCF727FA204610BD00BF086E00088D
:1047800010B50446FFF7E8FF2046FEF781F8204603
:1047900010BD000038B504460D46FCF713FA2CB1E5
:1047A0000DB9E56038BD024B2560E36038BD00BF40
:1047B000E06300082DE9F041054604460E46154B1E
:1047C00004F1180745F8043B28460021142200F0A4
:1047D00056FEDFF8488010223846002100F04FFED8
:1047E00000236363636404F128004146FFF7D2FFAE
:1047F00004F138004146FFF7CDFF3146064A234613
:104800003846FDF785FA2846314600F0B2FA2046D0
:10481000BDE8F081086E0008F1480008554700081F
:104820002DE9F0410D46064600F0F4FBEF6806F175
:10483000280406F11808204677B1FCF7C3F93CB10B
:10484000EB681BB15B68204629469847EB687363A9
:10485000012140460A4605E00549FFF79BFF404617
:104860003A460121FDF714FBBDE8F04100F0FCBB26
:10487000554700082DE9F0410D46064600F0CAFBF9
:10488000EF6806F1380406F11808204677B1FCF706
:1048900099F93CB1EB681BB15B6820462946984703
:1048A000EB68736440460221012205E00549FFF7E9
:1048B00071FF40463A460221FDF7EAFABDE8F041B1
:1048C00000F0D2BB55470008C36810B504462BB9A9
:1048D0000548064940F2E71200F078FBE3682046FD
:1048E000BDE810401B681847106E0008156E0008E0
:1048F000012908B502D0022902D008BD283000E005
:104900003830FFF7E1FF08BD7047704710B5044627
:1049100000F098F8014B2046236010BD686E000837
:1049200038B5044603681B689847204600F080F8B5
:104930000546236820465B689847284638BD38B549
:1049400004460D4603681B6898472946204600F038
:1049500072F80546236820465B689847284638BDAC
:1049600070477047704710B588B1146853680CB928
:10497000DA070CD513F0010F4FEA630318BFC258D2
:10498000184418BF14592346BDE81040184710BDFD
:1049900070B509014418D4F8A43001F19805054414
:1049A0002BB90648064940F2E71200F00FFBD4F895
:1049B000A4302846BDE870401B681847106E0008F8
:1049C000156E000870B505460E46044655F84C3B7A
:1049D0001B68984728463146FEF78EF82368C4F8CE
:1049E000B8602046BDE870405B68184738B505469A
:1049F00055F84C3B04461B6898472846FEF7E2F8FA
:104A00000546236820465B689847284638BD38B578
:104A1000054655F84C3B04461B6898472846FEF768
:104A2000F1F80546236820465B689847284638BD5C
:104A30004C30FEF7D1B810B50C464C30FEF7ECF810
:104A4000204610BD2DE9F3479046024604469A469B
:104A50002B4B002542F8083B009502AB0195894697
:104A600013E90300274B82E80300236148F20703A0
:104A70006361254BE561A46122626362BFF36F8FBE
:104A8000BFF34F8F04F14C0604F19807656365642A
:104A900084F8485084F84950304629464C2200F0AA
:104AA000EEFCC4F8A450C4F8B450C4F8B8A038461A
:104AB000FCF788F82FB1154BC4F89830144BC4F8A4
:104AC000A43004F1A8052846FCF77CF82DB10F4B63
:104AD000C4F8A8300E4BC4F8B430424630464946BC
:104AE000FDF766FF3046D4F8B810FEF705F83046FB
:104AF00008492246FEF704F8204602B0BDE8F087D8
:104B0000806E000801A090E867490008614900082C
:104B1000E0630008914900082DE9F0410746884606
:104B2000164657F84C3B05461B68984700F072FA4A
:104B3000D8F80C3034019834ABB12C442046FCF743
:104B400041F864B1D8F80C301BB15B68204641468F
:104B50009847D8F80C2005EB0613C3F8A420384674
:104B60003146012211E005EB04084046FCF72AF823
:104B7000B8F1000F06D00A4B0A4A2B5105EB061379
:104B8000C3F8A420384631460022FDF7C5FF00F0E7
:104B90006BFA2B682846BDE8F0415B68184700BFF8
:104BA00061490008E0630008436A70B5044600F1FB
:104BB00018052BB90548064940F2E71200F006FA3D
:104BC000636A2846BDE870401B681847106E0008ED
:104BD000156E000870B504464368416904F1180574
:104BE000194400F063F9636A2BB90648064940F29C
:104BF000E71200F0EBF9636A2846BDE870401B68D5
:104C0000184700BF106E0008156E000838B505463D
:104C10000C4600F0FFF9284600F04EF96C61286957
:104C200000F0C7F90119284600F040F9BDE8384006
:104C300000F01ABA38B5044600F0ECF904F1180592
:104C4000204600F039F92846FBF7BCFF0DB10023E0
:104C50006362BDE8384000F007BA10B5044600F0C2
:104C6000D9F923682BB9E06800F0A3F9012360604B
:104C70002360BDE8104000F0F7B938B5054600F0F4
:104C8000C9F92C6824B1E86800F093F96C68041B3A
:104C900000F0EAF9204638BD10B5044600F0BAF934
:104CA0002046FFF7EAFFA36818440023A0602360B2
:104CB000BDE8104000F0D8B938B5054600F0AAF9B3
:104CC0002846AC68FFF7D9FF044400F0CDF9204630
:104CD00038BD08B5FFF7F0FF4FF47A7390FBF3F09F
:104CE00008BD10B5044600F095F9E06800F061F9E0
:104CF00000236060A360BDE8104000F0B5B9002358
:104D000010B5036043608360044600F055F9E0602D
:104D10002046FFF7E6FF204610BD000038B5B0F989
:104D20000030044601330D4604D1064806493A22B4
:104D300000F04CF963680DB1E26800E0226913608D
:104D400038BD00BF64650008386D000870B50E46B8
:104D500004461546FCF754FF013609D020460021D1
:104D6000FCF76AFF20462946BDE87040FCF760BFAB
:104D700070BD0022FFF7EABF70B50E460446154627
:104D8000FCF73EFF01360DD020462946FFF7C6FF4F
:104D900020460121FCF750FF2046BDE8704000216D
:104DA000FCF746BF70BD0022FFF7E6BF10B5044612
:104DB000013001D110BD0C31B1F900305A1C0BD0BB
:104DC000A342F8D120468968FDF7EEF92046BDE8F8
:104DD00010400021FDF788BA0248BDE8104000F0FD
:104DE00007B900BFBC6E0008884208B50AD0431C52
:104DF00007D0013106D0044800F0FAF84FF0FF3038
:104E000008BD084608BD00BFCD6E0008B1F90030EE
:104E10005A1C05D0834201D1486870470C31F5E730
:104E200018467047421C10B5044607D0FFF7EEFF46
:104E3000431C044602D1024800F0DAF8204610BDB7
:104E4000DE6E0008B1F900305A1C05D0834201D152
:104E5000886870470C31F5E718467047421C10B55A
:104E6000044607D0FFF7EEFF431C044602D1024878
:104E700000F0BEF8204610BDFE6E000803689B6877
:104E800018470000074B10B50360002343608360A0
:104E9000C360044600F090F80349206100F01CF85C
:104EA000204610BD286F00087D4E000803460A46C4
:104EB0000069191D00F03DB801460069043100F099
:104EC00059B8000010B50446024B0360FFF7F4FF29
:104ED000204610BD286F000838B504460D4603680B
:104EE0001B68984763681D6038BD036870B5DB6850
:104EF0000446984763685A6823681AB99B68BDE8F6
:104F0000704018475B6815689847281A002863683E
:104F100008DC5A68916859601B68002BEAD0506819
:104F20009847E7E721685A68BDE870400B69106848
:104F30001847F8B507460D461C46164600F06AF8B5
:104F400079686C604C682E60002334B12268B21A14
:104F5000002A02DB2346A468F7E72BB93B684D60C3
:104F60001B693046984700E09D60AC60BDE8F840A2
:104F700000F07AB838B505460C4600F04BF86A6880
:104F80005368A3420BD19B6853602A6813B9936896
:104F900098470AE012691868904706E0134623B163
:104FA0009A68A242FAD1A2689A60BDE8384000F03F
:104FB0005BB803685B68184700487047486F000893
:104FC0000148FFF792BF00BF486F000870B5064662
:104FD0000D46144600F01EF831462A462346034883
:104FE000FDF784F8BDE87040FDF74EB8506F00083B
:104FF0000FB407B504A951F8040B0191FDF74EF861
:105000000120FDF729FCEFF3108000F0010080F093
:105010000100704738B5FFF7F6FF80F00100C5B218
:1050200072B60C4C23680BB90B4B1D70236801330F
:1050300004D10A480A493522FFF7C8FF23682BB17B
:1050400025B9084806493922FFF7C0FF2368013314
:10505000236038BD281200202C120020816F000828
:10506000A76F0008EA6F000810B50A4C236883B1E7
:10507000FFF7C9FF20B1084808494A22FFF7A6FFF9
:105080002368013B236023681BB9054B1B7803B9D8
:1050900062B610BD28120020EA6F0008A76F000852
:1050A0002C12002038B50446FFF72EFA0546FFF70C
:1050B0002BFA401BA042FAD338BD4FF47A73584301
:1050C000FFF7F0BFFDF7E4BB8A892DE9F041054603
:1050D00010070C465AD44B68002B05DC0B6C002BD8
:1050E00002DC0020BDE8F081E66A002EF9D0002342
:1050F00012F480522F682B6033D0606DA3895A0759
:1051000005D56368C01A636B0BB1236CC01A00230A
:105110000246E66A216A2846B047431CA38906D1A5
:1051200029681D294BD82B4ACA40D60747D50022EB
:1051300062602269D904226004D5421C01D12B6827
:1051400003B96065616B2F600029CAD004F1440384
:10515000994202D0284601F03FF800206063BDE884
:10516000F081216A01232846B047411CC6D12B6833
:10517000002BC3D01D2B01D0162B01D12F60B0E71F
:10518000A38943F04003A381BDE8F0810F69002F9C
:10519000A7D0930718BF00230E6808BF4B69A6EB82
:1051A00007080F608B60B8F1000F9ADD43463A465E
:1051B000216A2846A66AB047002807DCA38943F085
:1051C0004003A3814FF0FF30BDE8F0810744A8EB16
:1051D0000008E8E70100402038B50B6905460C4699
:1051E000DBB118B183690BB900F072F80C4B9C422B
:1051F00009D16C68B4F90C307BB121462846BDE872
:105200003840FFF761BF074B9C4201D1AC68F1E722
:10521000054B9C4208BFEC68ECE7002038BD00BF9E
:10522000207000084070000800700008014620B996
:10523000044B0549186800F0B7B8044B1868FFF72D
:10524000CBBF00BF60700008D9510008FC000020EF
:10525000014900F0A9B800BFD9510008002310B5DA
:10526000044603604360836081814366C2810361B9
:1052700043618361194608225C3000F000F9054B58
:1052800024626362044BA362044BE362044B236316
:1052900010BD00BF8F540008B1540008E954000845
:1052A0000D55000870B568254A1E55430E4605F198
:1052B000740100F08DFF044640B1002180E84200F7
:1052C0000C30A06005F1680200F0D9F8204670BDEE
:1052D000836910B5044633BB8364C3640365124B12
:1052E000124A1B688262984204BF0123836100F066
:1052F0001FF86060204600F01BF8A060204600F018
:1053000017F80022E06004216068FFF7A7FF012280
:105310000921A068FFF7A2FF02221221E068FFF72F
:105320009DFF0123A36110BD607000085152000869
:10533000F8B51C4B07461E68B36913B93046FFF732
:10534000C7FF4836B4687368013B03D5336833B18F
:105350003668F7E7B4F90C506DB16834F4E704210E
:105360003846FFF79FFF30600028F1D10C23044638
:105370003B602046F8BD4FF6FF73E381012365666D
:10538000A3812560A560656025616561A56108222E
:10539000294604F15C0000F072F86563A563A5641A
:1053A000E564E6E7607000082DE9F8438046894629
:1053B000002600F1480414B93046BDE8F883A5681A
:1053C0006768013F01D52468F5E7AB89012B07D950
:1053D000B5F90E30013303D029464046C84706438D
:1053E0006835EEE770B500250C4E0D4CA41BA410DB
:1053F000A54209D100F0DCFF00250A4E0A4CA41B8F
:10540000A410A54205D170BD56F825309847013546
:10541000EEE756F8253098470135F2E760010020A5
:1054200060010020600100206C010020024B014659
:10543000186800F0CDBE00BFFC000020024B014602
:10544000186800F0C9BE00BFFC00002010B5C9B24A
:1054500002449042034601D1002010BD1C78013067
:105460008C42F6D1184610BD10B5431E0A44914235
:1054700000D110BD11F8014B03F8014FF7E70346C7
:105480000244934200D1704703F8011BF9E710B5BD
:105490000C46B1F90E1000F07BFB0028ABBF636D2A
:1054A000A3891B1823F48053ACBF6365A38110BD8F
:1054B0002DE9F0411F468B890546DB050C46164653
:1054C00005D502230022B1F90E1000F067F8A38978
:1054D000324623F48053A381B4F90E103B4628468C
:1054E000BDE8F04100F038B810B50C46B1F90E1027
:1054F00000F054F8431CA38915BF606523F4805362
:1055000043F48053A38118BFA38110BDB1F90E10DD
:1055100000F034B810B59AB0009104916FF00041DA
:10552000029105914FF6FF714FF40274ADF80E1021
:105530006946ADF80C4000F09FF80022009B1A70FD
:105540001AB010BD13460A46014602480068FFF72C
:10555000E1BF00BFFC00002038B5054608461146F3
:105560000022054C22601A46FDF7D0F8431C02D1F8
:10557000236803B12B6038BDF412002038B5002336
:10558000054C054608462360FDF7AAF8431C02D1E6
:10559000236803B12B6038BDF412002038B50546EE
:1055A000084611460022054C22601A46FDF7F8F81D
:1055B000431C02D1236803B12B6038BDF4120020D4
:1055C0002DE9F0478E6882469E420C4691469846E9
:1055D00035D88A8912F4906F31D002232568096981
:1055E0006F1A656905EB450595FBF3F508F10103B5
:1055F0003B449D4238BF1D46530531D5294600F036
:10560000E7FD064650B90C23CAF80030A3894FF0D5
:10561000FF3043F04003A381BDE8F0873A4621699B
:10562000FFF722FFA38923F4906343F08003A38153
:1056300026613E44266046466561ED1BA5604645F1
:1056400028BF464649463246206800F0B3FAA368B0
:1056500000209B1BA36023681E442660BDE8F087E2
:105660002A4600F0B7FD06460028E1D121695046E0
:1056700000F0B2FDC7E700002DE9F04F9DB00393A5
:105680008B8980461C060D4616460FD50B696BB9F3
:10569000402100F09DFD2860286128B90C23C8F83E
:1056A00000304FF0FF30C4E040236B6100230993CA
:1056B00020238DF8293030234FF0010B8DF82A304C
:1056C00037463C4614F8013B002B3CD1B7EB060AA9
:1056D0000BD05346324629464046FFF771FF013052
:1056E00000F0A280099B534409933B78002B00F003
:1056F0009B8000234FF0FF3204930793059206939B
:105700008DF853301A93052221785048FFF79EFEFA
:10571000671C049BD8B9D90644BF20228DF85320BA
:105720001A0744BF2B228DF8532022782A2A16D03C
:1057300000210A20079A27463B780134303B092B89
:1057400050D9C9B111E0252BC0D02746B9E73F4A4F
:105750003C46801A0BFA00F018430490D3E7039AF2
:10576000111D12680391002A01DB079204E05242E6
:1057700043F00203079204933B782E2B0DD17B78E4
:10578000791C2A2B32D1039B02371A1D1B68039206
:10579000002BB8BF4FF0FF3305932D4C032239780F
:1057A0002046FFF753FE38B14023001B03FA00F0F8
:1057B000049B0137034304933978062225487E1C55
:1057C0008DF82810FFF742FE002835D0224BFBB998
:1057D000039B073323F0070308330393099B4B44D0
:1057E00009936DE700FB02320121A4E700230A249C
:1057F000184605930F463A780131303A092A03D901
:10580000002BCAD00590C8E704FB00200123F1E774
:1058100003AB00932A46114B04A94046AFF3008026
:10582000B0F1FF3F8146D9D1AB895B063FF539AF77
:1058300009981DB0BDE8F08F03AB00932A46074BD3
:1058400004A9404600F084F8EAE700BF647000084D
:105850006A7000086E70000800000000C155000862
:105860002DE9F04791461F468A680B690646934228
:10587000B8BF1346C9F8003091F843200C46DDF854
:10588000208012B10133C9F800302368990642BF65
:10589000D9F800300233C9F80030256815F0060544
:1058A00007D104F1190AE368D9F800209B1A9D4238
:1058B0002ADB94F843302268003318BF0123920694
:1058C0002FD404F1430239463046C047013022D07C
:1058D0002368E56803F00603042B18BF0025D9F8F8
:1058E00000204FF0000908BFAD1AA368226908BF65
:1058F00025EAE5759342C4BF9B1AED181A344D454D
:105900001BD10020BDE8F0870123524639463046BE
:10591000C047013003D14FF0FF30BDE8F0870135BB
:10592000C1E73020E11881F843005A1C94F8451073
:105930002244023382F84310C3E70123224639464A
:105940003046C0470130E6D009F10109D7E7000031
:105950002DE9F04317460A7E85B06E2A9846064622
:105960000C460C9B01F1430E00F0BC801AD8632A50
:105970002ED00AD8002A00F0C880582A00F08A8069
:1059800004F1420584F842202AE0642A01D0692A01
:10599000F6D121681A6811F0800F23D0111D19600B
:1059A000136827E0732A00F0B48008D86F2A2AD041
:1059B000702AE5D10A6842F020020A6003E0752AE5
:1059C00021D0782ADCD178226F4984F8452064E020
:1059D0001A6801F14205111D1960136884F84230FC
:1059E0000123A3E011F0400F02F104011960D7D0A8
:1059F000B2F90030002B03DA2D225B4284F84320F9
:105A000062490A2217E02068196810F0800F03D05D
:105A1000081D18600B6806E010F0400F01F104004B
:105A20001860F7D00B886F2A14BF0A220822574942
:105A3000002084F843006568002DA560C0F29C80BA
:105A4000206820F004002060002B3FD1002D40F0A2
:105A500095807546082A0BD12368DA0708D5236993
:105A600062689A42DEBF302305F8013C05F1FF353C
:105A7000AEEB05032361CDF800803B4603AA214627
:105A80003046FFF7EDFE013055D14FF0FF3005B045
:105A9000BDE8F08381F845203C492268186812F07F
:105AA000800F00F104051D6001D0036802E0550677
:105AB000FBD50388D00744BF42F0200222601BB907
:105AC000226822F0200222601022B1E77546B3FB63
:105AD000F2F002FB1033CB5C05F8013D03460028D1
